S01800004449504C4F4D5F4C41425F5354414E442E7372656340
S1130000BBC00000D7C00000D5C00000D3C00000B2
S1130010D1C00000CFC00000CDC00000CBC00000A4
S1130020C9C000000C94DA19C5C00000C3C00000A8
S1130030C1C000000C943518BDC00000BBC0000056
S11300400C947D19B7C00000B5C00000B3C0000017
S1130050B1C00000AFC00000ADC00000ABC00000E4
S1130060A9C00000A7C00000A5C00000A3C00000F4
S1130070A1C000009FC000009DC000009BC0000004
S113008099C0000097C0000095C0000014083E0805
S113009014147F147F1400606000003E5149453EF3
S11300A000427F400042615149462141454B31188D
S11300B014127F1027454545393C4A49493001719E
S11300C00905033649494936064949291E000000F5
S11300D000007E1111117E7F494949317F49494908
S11300E0367F01010103603F213F607F4949494157
S11300F077087F087741494949367F2010087F7C7B
S11301002112097C7F08142241403E01017F7F02B5
S11301100C027F7F0808087F3E4141413E7F010178
S1130120017F7F090909063E4141412201017F0106
S113013001474848483F1C227F221C63140814636B
S11301403F2020207F0F0808087F7F407F407F7F6B
S1130150407F40FF017F4848307F4830007F7F4820
S1130160484830224149493E7F083E413E462919CC
S1130170097F7C555455440011241FBECFEFD0E4B1
S1130180DEBFCDBF16E0A0E0B1E0E0E0F8E300E0C0
S11301900BBF02C007900D92A63AB107D9F726E02B
S11301A0A6EAB6E001C01D92AE3DB207E1F7E7D37F
S11301B00C94FE1B25CF82B1876082B90895CF933A
S11301C0C82FF9DFC11103C082B18E7F82B9C1305B
S11301D019F482B18D7F82B9C23019F482B18B7F58
S11301E082B9CF91089590B1892F887093FF0DC083
S11301F0049B06C0059B06C0069906C083E00895CB
S113020081E0089582E008958FEF089581B18760B9
S113021081B982B1876082B981B1877881B982B1AD
S1130220886782B90895CF93DF93C0E02BC08C2FE9
S1130230C6DF8DE08A95F1F70000D5DFD82F8F3F18
S113024001F18FE39CE90197F1F700C00000CBDFD7
S1130250D81317C0C8DF8F3FE9F78FE39CE90197F4
S1130260F1F700C00000A7DF8D2F90E0FC01EE0F36
S1130270FF1FE80FF91FE050FF4FEC0FF11D8081C5
S113028005C0CF5FC33098F296DF80E0DF91CF9155
S113029008959FB7F89485B7806885BF85BF9FBFD1
S11302A0089588B1886088B985E88A95F1F70000D7
S11302B088B1877F88B985E88A95F1F700000895A9
S11302C098B19F7098B980FF03C098B1906198B9B4
S11302D081FF03C098B1906298B982FF03C098B1BE
S11302E0906498B983FF03C088B1806888B9D9CF76
S11302F00895CF93C82F611104C088B18B7F88B94A
S113030003C088B1846088B98C2F82958F70D8DF40
S11303108C2F8F70D5DFCF91089560E0EACF0895D8
S113032061E0E7CF089581E0F8DF8FE99FE001976E
S1130330F1F700C000000895ACDF87B18C6F87B976
S113034088B1837088B98FE295E70197F1F700C00F
S1130350000083E0B5DF8FE39FE10197F1F700C070
S1130360000083E0ADDF87EC90E00197F1F700C077
S1130370000083E0A5DF8FEC97E00197F1F700C060
S1130380000082E09DDF8FEC97E00197F1F700C059
S1130390000088E2C2DF8CE0C0DF86E0BEDFC3CFAE
S11303A008956111805C8068B8CF08950F931F93FE
S11303B0CF938C01C0E002C0B3DFCF5FF801EC0F34
S11303C0F11D80818111F8CFCF911F910F91089574
S11303D088E0A3DF88B1837088B987B1837087B957
S11303E0089585B18F7E85B9089585B1806185B9F9
S11303F00895CF93C82F8BB18D7F8BB9F2DFCEBD1B
S11304000DB407FEFDCFF1DFCF910895CF93C82F30
S11304108BB182608BB9E5DFCEBD0DB407FEFDCF95
S1130420E4DFCF9108950F931F93CF93DF93082FA9
S1130430D62F142FC22F8AE2DCDF80E0E7DF802F83
S1130440E5DF80E0E3DF812FE1DF8BE2D2DF80E0D4
S1130450DDDF8D2FDBDF80E0D9DF8C2FD7DF8CE26F
S1130460C8DFDF91CF911F910F910895DF92EF9232
S1130470FF920F931F93CF93DF93EA01D22EF32EB3
S11304802E2D220F220F220F2E19260F21503E2D22
S1130490330F3E0D932F990F980F4FEF490FC3DF82
S11304A08BB182608BB99DDF40E02FC0353080F482
S11304B0FE01E30FF11D849190E0042E02C0959596
S11304C087950A94E2F780FF06C09D2D2F2D05C065
S11304D0902F212F02C0902F212F80E009C02EBD24
S11304E00DB407FEFDCF9EBD0DB407FEFDCF8F5F9B
S11304F08E15A8F33F5F01C030E03630B8F25F5F7D
S113050001C050E05E15C0F34F5F4730D0F36DDF9C
S1130510DF91CF911F910F91FF90EF90DF9008959D
S1130520803259F0803D59F4613859F080E7860FE4
S1130530803248F481E7860F089580E0089580E0D2
S1130540089581E2089580E008958BB181608BB9AC
S11305508FE097E20197F1F700C000008BB18E7F26
S11305608BB98FE39CE90197F1F700C000008BB1D0
S113057081608BB99FEF2DEE82E091502040804046
S1130580E1F700C00000089584B1806B84B98AB19A
S113059083608AB985B1806185B98BB183608BB979
S11305A00895D3DF81E025DF2FE789EA93E0215026
S11305B080409040E1F700C0000081E11ADF2FEB9A
S11305C089E396E0215080409040E1F700C00000AC
S11305D081EB0FDF81E01ADF8CE218DF8DE216DF9A
S11305E082EB07DF81E012DF8CE210DF8DE20EDFA9
S11305F083EBFFDE81E00ADF8CE208DF8DE206DFB9
S113060081E004DF8CE202DF8DE200DF84EBF1DEC7
S113061087E0FCDE80ECEDDE82EAF8DE82E0F6DEE6
S113062084E8F4DE81ECE5DE85ECF0DE82ECE1DEEC
S11306308AE0ECDE80E0EADE83ECDBDE8AE8E6DEFC
S11306408AE2E4DE84ECD5DE8AE8E0DE8EEEDEDEED
S113065085ECCFDE8EE0DADE80E2CBDE86E3C9DE37
S113066080ECD4DE8AE3C5DE85E0D0DE83E1C1DE42
S11306708FE19EE40197F1F700C0000089E2B9DE42
S11306809FEF20E782E0915020408040E1F700C0D6
S113069000000895CF93DF93D82FC92F2FE94FE798
S11306A060E080E0C0DE8BB182608BB99ADE80E0CE
S11306B090E0DC010BC0CEBD0DB407FEFDCFDEBD66
S11306C00DB407FEFDCF0196A11DB11D811520E5D6
S11306D09207A105B10578F388DEDF91CF910895E3
S11306E0CF93DF938823A4F0603A90F4D52FC42FDE
S11306F0262F482F98DE8BB182608BB972DEDEBD67
S11307000DB407FEFDCFCEBD0DB407FEFDCF6DDEEB
S1130710DF91CF910895EF920F931F9390ED940F73
S11307209A3070F450E040535109FA01EE0FFF1F64
S1130730EE0FFF1F4E0F5F1F45565F4F97DE15C02C
S11307404A3221F44CE850E091DE0FC0433221F4E8
S113075041E950E08BDE09C04E3221F446E950E015
S113076085DE03C04DEC50E081DE1F910F91EF90C8
S113077008956F927F928F929F92AF92BF92CF9281
S1130780DF92EF92FF920F931F93CF93DF93782E14
S1130790662E4A0159016801FE2CC0E0D0E057C022
S11307A080ED840F8A3070F4EF2C86019501662D5C
S11307B0872DB1DF21968F2D880F8F0D982F990FDC
S11307C0790E45C04E3221F04A3211F0433271F4B1
S11307D0EF2C86019501662D872D9DDF21968F2DA7
S11307E0880F8F0D982F990F790E31C0403281F404
S11307F0EF2C860195014DEC50E0662D872D36DEF9
S113080021968F2D880F8F0D982F990F790E1FC069
S1130810FE013196E80DF91D6081842F81DE90E0A0
S1130820AC01440F551F440F551F840F951FAC0195
S113083043535F4FEF2C86019501662D872D16DEFD
S113084022968F2D880F8F0D982F990F790EF40112
S1130850EC0FFD1F40814111A3CFDF91CF911F9178
S11308600F91FF90EF90DF90CF90BF90AF909F904B
S11308708F907F906F9008950F931F93CF93DF9382
S1130880C42FD22F8823A4F1603A90F5242F30E0AE
S1130890280F311D213831051CF020E8C22FC81B58
S11308A02D2F30E0260F311D213A31051CF020EAAE
S11308B0D22FD61B2D2F260F21504C2F480F4150DD
S11308C0B2DD8BB182608BB98CDDCD9F9001112498
S11308D080E090E009C01EBD0DB407FEFDCF0EBD43
S11308E00DB407FEFDCF019682179307A0F37DDDBB
S11308F0DF91CF911F910F91089585B7806885BFCF
S113090085B7806885BF0895282F90E080E005C0F2
S1130910880F20FD816026959F5F9830C8F3089565
S1130920ECDF8FEF87B988B908958FEF88B9089500
S1130930EBDF809588B90895CF93C0E00CC08FE1B8
S11309409EE40197F1F700C0000003D3853339F02A
S1130950811107C0CF5FCE3190F380E003C081E006
S113096001C080E0CF91089580E58CBD81E08DBD0C
S11309700895E1E6F0E080E8808310820895F9DFCD
S113098003DEF2DFDFD242DC0CDED6DC21DD78943C
S11309901092A6064FD5DDD2C82F8091A6068111EC
S11309A003C08C2F6BD5F7CF813079F4C53351F464
S11309B0C3DF882321F01092A6063CD5ECCF8C2F00
S11309C00BD4E9CF8C2F08D4E6CF863009F038C099
S11309D0C23339F4A6D1D82FFDD18D2FA5D1A1D101
S11309E0A3D1C83339F49DD1D82F04D28D2F9CD1F3
S11309F098D19AD1C53309F0CECF9EDF882329F050
S1130A0081E08093A606E2D3C6CF8BD1811106C0C4
S1130A1087E08093A6060E945611BDCF82D1813013
S1130A2029F488E08093A606ECD5B5CF7AD182303C
S1130A3009F0B1CF89E08093A6060E949312ABCF50
S1130A40823009F059C0C23381F41091A806D091C4
S1130A50A7063CD28091A706D81711F026D205C06C
S1130A60812FDED18091A806DBD1C83381F41091A7
S1130A70A806D091A7063AD28091A706D81711F0FC
S1130A8014D205C0812FCCD18091A806C9D1C53319
S1130A9009F081CF51DF882329F081E08093A606F5
S1130AA095D379CF8091A806811105C083E0809306
S1130AB0A606EDD470CF813031F484E08093A6068D
S1130AC00E94081068CF823031F485E08093A60636
S1130AD00E949D1360CF833031F48BE08093A6068F
S1130AE00E946E1758CF843009F055CF8AE0809366
S1130AF0A6060E94EB0E4FCF873021F48C2F0E9464
S1130B00A81149CF883019F48C2FB9D544CF893036
S1130B1021F48C2F0E94E1123ECF833019F48C2FE4
S1130B20D2D439CF843021F48C2F0E943B1033CFA0
S1130B30853021F48C2F0E94E0132DCF8A3021F4CC
S1130B408C2F0E94140F27CF8B3009F024CF8C2FC9
S1130B500E94851720CF83ED08958CB5837F8CBDCB
S1130B6008958CB5877F8CBD8CB584608CBD089549
S1130B708EBD0DB407FEFDCF8EB5089585B180619D
S1130B8085B9EFDF82B18F7782B9089582B1806829
S1130B9082B9E3CF0895CF93DF93D82FC62FEEDF2A
S1130BA08D2F8068E5DF8C2FE3DFF0DFDF91CF91BD
S1130BB00895CF93C82FE2DF8C2F8F77D9DF8FEF83
S1130BC0D7DFC82FE3DF8C2FCF910895C4DF682FC0
S1130BD080E0E1CF089587E0ECCF0895CF9381E0E2
S1130BE0E8DFC82F82E0E5DF282F80FF05C0F3DFB0
S1130BF0EDDF80E090E007C08C2F90E0982F8827ED
S1130C00822B96958795CF910895CF92DF92EF929C
S1130C10FF921F93CF93DF93182FC12CD12C760111
S1130C20D0E0C0E012C0DADF009729F0C80ED91E68
S1130C30E11CF11CDF5F2FE386E991E02150804045
S1130C409040E1F700C00000CF5FC11760F3DD23DF
S1130C5051F02D2F30E040E050E0C701B6010E9472
S1130C60A11BC90102C080E090E0DF91CF911F91E8
S1130C70FF90EF90DF90CF90089581B1806881B9A3
S1130C8082B1806882B984B1806B84B984B18F7B6E
S1130C9084B985B1806185B999DF2FE789EA93E04A
S1130CA0215080409040E1F700C0000008950F9368
S1130CB01F9384E0AADF009751F19C01A8EFB7EAE3
S1130CC00E94DF1B8B019C01992324F401501048DE
S1130CD02F4F3F4FD901C801072E7FE0B595A79547
S1130CE0979587957A95D1F7702D9C01AD01205188
S1130CF0374241095109A4E6B0E00E94F41B21E8FF
S1130D0031E040E050E00E94C31BC90102C080E012
S1130D1090E81F910F9108951092AA061092A906C7
S1130D2008958091AA060895CF92DF92EF92FF92E0
S1130D300F931F93CF939091A906891790F1E82EF2
S1130D40F12C292F30E02D5F3F4FE216F3064CF5CE
S1130D50282F291BC2E22C9FC02D112468E06C0FA0
S1130D609091AA06891306C00F2EFFE1CF2ED12C35
S1130D70F02D02C0C12CD12C86012AE140E880E08C
S1130D807BDD88E28E9DA0018F9D500D11244A5E6B
S1130D905E4F62E16C0FEE24E3942FEF3FEF86E0A9
S1130DA0E8DCCF911F910F91FF90EF90DF90CF90EF
S1130DB00895CF9380E090E06DDCC0E007C080919F
S1130DC0A9068C0F833008F4AFDFCF5FC330B8F3CC
S1130DD0CF9108958091AA06882319F081508093B9
S1130DE0AA068091AA069091A906891710F4809307
S1130DF0A90608958091AA06823018F48F5F809323
S1130E00AA062091AA06422F50E08091A90690E0FC
S1130E100396481759071CF022502093A9060895F9
S1130E20CF92DF92EF92FF920F931F93CF93909103
S1130E30A706891790F1E82EF12C292F30E02C5FBA
S1130E403F4FE216F3064CF5282F291BC2E22C9FD4
S1130E50C02D112468E06C0F9091A806891306C078
S1130E600F2EFFE1CF2ED12CF02D02C0C12CD12C9E
S1130E7086012AE140E880E0FFDC88E28E9DA00143
S1130E808F9D500D112442575E4F62E16C0FEE248A
S1130E90E3942FEF3FEF86E06CDCCF911F910F912D
S1130EA0FF90EF90DF90CF900895CF9380E090E093
S1130EB0F1DBC0E007C08091A7068C0F853008F4F1
S1130EC0AFDFCF5FC430B8F3CF9108958091A80607
S1130ED0882319F081508093A8068091A8069091E8
S1130EE0A706891710F48093A70608958091A80691
S1130EF0843018F48F5F8093A8062091A806422FAF
S1130F0050E08091A70690E00496481759071CF01A
S1130F1023502093A70608954B9B0AC04D9B0AC0FB
S1130F204A9B0AC04E9B0AC04C990AC085E30895A7
S1130F3082E3089588E3089584E3089586E3089599
S1130F4080E008958AB183788AB98BB18C678BB9B4
S1130F500895CF93E1DFC82F8823A1F08FE39CE9A4
S1130F600197F1F700C00000D7DFC8130DC0D4DF2C
S1130F708111FDCF8FE39CE90197F1F700C00000D8
S1130F808C2F03C080E001C080E0CF910895982F9A
S1130F9092959F70990F292F220F220F920F8F7015
S1130FA0890F08959DEC899F912D1124969596950E
S1130FB0969520E1929FA0011124990F292F220FC9
S1130FC0220F920F891B842B08950C945A1B0895A9
S1130FD0BF92CF92DF92EF92FF920F931F93CF9322
S1130FE0DF93EC010E94631B80ED0E946F1B80E085
S1130FF00E946F1B0E94631B81ED0E946F1B0E9465
S1131000791BE82E0E94791BD82E0E94791BC82ECA
S11310100E94791BF82E0E94791B082F0E94791BCD
S1131020182F0E94831BB82E0E946B1B8E2D8F7766
S1131030AEDFE82E88838D2DAADFD82E89838C2DF0
S11310408F73A5DFC82E8A838F2DA1DFF82E8B83A3
S1131050802F9DDF082F8C83812F8F7198DF182FAD
S11310608D838B2D94DF8E838FEF8F0D873010F05F
S113107081E08B8301500F3110F081E08C8311509B
S11310801C3010F081E08D8387E18C1508F41A82FE
S11310908BE38D1508F419828BE38E1508F41882FE
S11310A0DF91CF911F910F91FF90EF90DF90CF9040
S11310B0BF900895CF93DF93EC010E94631B80EDF2
S11310C00E946F1B80E00E946F1B88816BDF8F770B
S11310D00E946F1B898166DF0E946F1B8A8162DF19
S11310E00E946F1B8B815EDF0E946F1B8C815ADF15
S11310F00E946F1B8D8156DF0E946F1B8E8152DF11
S11311000E946F1B0E946B1BDF91CF910895CF92B9
S1131110DF92EF920F931F93CF93DF93D82F811118
S113112002C0CAE201C0CEE48091AC06D81306C066
S11311300F2EFFE1CF2ED12CF02D02C0C12CD12CCB
S113114086012AE140E86C2F80E096DBD1110BC0C8
S113115069E06C0FEE24E3942FEF3FEF46E552E095
S113116088E007DB0BC069E06C0FEE24E394860192
S11311702FEF3FEF4EE652E088E0FBDADF91CF91AC
S11311801F910F91EF90DF90CF900895EF920F93FE
S11311901F9380E090E07EDAEE24E39400E010E018
S11311A02FEF3FEF46E852E068E080E2E2DA80E0C9
S11311B0AEDF81E0ACDF20EE3FEF4CE952E064E8C3
S11311C080E2D7DA1F910F91EF9008951092AC0648
S11311D0DDDF1092AB060895CF93882309F43FC056
S11311E0C82F823351F48091AC061092AC06882348
S11311F021F08DDF8091AC068ADFC83359F48091E9
S1131200AC0691E09093AC06813021F080DF8091B0
S1131210AC067DDFC53351F48091AB06853331F4E0
S11312201092A6061092AB0605D119C0C533B9F4C5
S11312308091AC06811105C086E08093A6066CDD22
S1131240B8DD8091AC06813051F482E08093A6062B
S11312501092A8061092A70628DE1092AB06CF9132
S113126008950F931F93CF93DF93C82F0FEF17E0C9
S113127022E04EE0682F88E0FFDADAEFDC0F28E0A6
S113128042E06D2F86E1F8DA22E048E06D2F88E134
S1131290F3DA28E042E06D2F80E2EEDA22E04CE05F
S11312A06C2F82E2E9DA4FEF5FEF6C2F87E018DAF8
S11312B061E06C0F4FEF57E087E012DADF91CF91D6
S11312C01F910F9108950F931F93CF93DF93C82F0E
S11312D00FEF17E022E04CE0682F82E5CDDADAEF79
S11312E0DC0F28E042E06D2F8EE5C6DA22E048E00C
S11312F06D2F80E6C1DA28E042E06D2F88E6BCDA83
S113130022E04EE06C2F8AE6B7DA4FEF5FEF6C2FE6
S113131089E7E6D961E06C0F4FEF57E089E7E0D940
S1131320DF91CF911F910F91089582E49ADF8CE4AD
S113133098DF86E596DF80E694DF8AE692DF82E432
S1131340C2DF8CE4C0DF86E5BEDF80E6BCDF8AE670
S1131350BACF08950F931F93CF93DF93D0E01EC0AD
S1131360CD2FCC0F8C2F880F880FC80FC05C00E1E5
S113137014E824E046E06C2F88E27EDA24E046E0BC
S11313806C2F82E579DA48E156EC6C2F8DE2A8D90E
S113139048E156EC6C2F82E5A3D9DF5FD53000F32A
S11313A0DF91CF911F910F9108950F931F9304E044
S11313B011E222E344E26AE38EE25EDA08E116EC2B
S11313C022E044E26AE38EE257DA00E114E822E024
S11313D044E26AE68EE250DA08E116EC22E342E0E7
S11313E06AE38EE249DA00E114E822E342E06AE3C8
S11313F080E542DA40E050E062E485E371D940E000
S113140050E061E486E36CD940E050E062E486E3B6
S113141067D940E154E862E487E362D940E154E8E3
S113142063E486E35DD91F910F9108957EDF92DF17
S1131430BCCF0895EF920F931F9380E090E02AD9D8
S1131440EE24E39400E010E02FEF3FEF42EB52E094
S113145068E08BE28ED92FEF3FEF41EC52E068E178
S113146081E387D9E3DF20EE3FEF4CEC52E068E8FC
S113147082E27FD91F910F91EF900895882331F074
S1131480853321F481E08093A606A0CE0895EF92DF
S11314900F931F9380E090E0FDD81092AE068EE18A
S11314A080930C011092AD06EE24E39400E010E06A
S11314B02FEF3FEF40EE52E064E084E05AD91F91F1
S11314C00F91EF900895EF920F931F93853359F482
S11314D09091AD06953339F482E08093A60610927C
S11314E0AD06E3DC32C081118093AD060E94130186
S11314F0882359F16894EE24E1F800E010E020EE2E
S113150037E0482F60910C018091AE0604D9809198
S1131510AE06825F8093AE068F3638F01092AE0628
S113152080910C018E5E80930C0180910C018D38AA
S113153060F000E010E027E840E869E180E09CD931
S11315401092AE068EE180930C011F910F91EF90E3
S11315500895EF92FF920F931F93CF93DF9300E0D0
S113156010E028E140E868E580E086D96894FF242B
S1131570F4F8D0E8C0E01DC08091B1068D2359F085
S1131580EE24E39400E010E020EE37E041E368E568
S11315908F2DC1D80AC0EE24E39400E010E02FEFB1
S11315A03FEF40E368E58F2DB6D88CE0F80ED69572
S11315B0CF5FC83008F3DF91CF911F910F91FF9057
S11315C0EF900895C6CF08958091AF06811118C099
S11315D08FE097E20197F1F700C000008091B00618
S11315E08F5F8093B0068A3058F01092B0068091D5
S11315F0B1069ED9E7DF8091B1068F5F8093B10673
S11316000895EF920F931F9380E090E043D81092D7
S1131610B2061092B1061092B0061092AF0680D9AD
S11316208091B10685D9EE24E39400E010E02FEF19
S11316303FEF4EEF52E064E084E09BD82FEF3FEFA2
S113164044E153E06CE184E094D82FEF3FEF4DE2A6
S113165053E06CE284E08DD82FEF3FEF41E453E098
S11316606CE384E086D820EE3FEF47E553E060E981
S113167084E07FD8A7DF1F910F91EF900895CF9357
S1131680C82FA2DFCC2329F1C53361F48091B206BF
S1131690853341F44AD986E08093A6061092B206B7
S11316A088DB17C0C43339F41092B1061092B00627
S11316B080E03ED987DFC63351F48091AF0688239A
S11316C019F01092AF0603C081E08093AF06C09377
S11316D0B206CF910895823021F4637061F48DE1F4
S11316E00895843051F0863051F0893051F08B30B8
S11316F051F48EE108958CE108958EE108958EE110
S113170008958EE108958FE10895CF93DF9380913A
S1131710BC06811103C081E08093BC068091BC06A5
S11317208D3018F08CE08093BC06C7EBD6E06E8158
S11317308D81D1DF9C81911103C091E09093BB0610
S11317409091BB06891710F48093BB06DF91CF916B
S113175008958091B606813059F48091B50682309F
S113176020F48F5F8093B50608951092B50608950E
S1131770823051F48091B506823020F48F5F8093DB
S1131780B50608951092B50608958091B606813085
S113179061F48091B506882321F081508093B506C9
S11317A0089582E08093B5060895823059F48091BB
S11317B0B506882321F081508093B506089582E010
S11317C08093B5060895CF93DF938091B606813058
S11317D089F58091B506811110C0C7EBD6E06E8102
S11317E08D8179DF9C81981720F49F5F9093BB06CD
S11317F04BC081E08093BB0647C0813069F480917F
S1131800BC068C3020F48F5F8093BC0603C081E05B
S11318108093BC067ADF38C08230B1F58091BD0672
S1131820833620F48F5F8093BD0602C01092BD06FC
S11318306CDF2AC0823041F58091B50681110BC05E
S11318408091B906873120F48F5F8093B9061CC05C
S11318501092B90619C0813059F48091B8068B33BF
S113186020F48F5F8093B8060FC01092B8060CC0A6
S1131870823051F48091B7068B3320F48F5F8093CC
S1131880B70602C01092B706DF91CF910895CF93A7
S1131890DF938091B606813089F58091B506811178
S11318A00FC0C7EBD6E06E818D8115DF9C8192302D
S11318B020F091509093BB064EC08093BB064BC062
S11318C0813069F48091BC06823020F0815080938D
S11318D0BC0603C08CE08093BC0617DF3CC082309A
S11318E0D1F58091BD06882321F081508093BD06F7
S11318F003C083E68093BD0608DF2DC0823059F50E
S11319008091B50681110CC08091B906882321F01D
S113191081508093B9061FC087E18093B9061BC02C
S1131920813061F48091B806882321F0815080933E
S1131930B80611C08BE38093B8060DC0823059F409
S11319408091B706882321F081508093B70603C0A5
S11319508BE38093B706DF91CF910895EF920F93B5
S11319601F93EE24E39400E010E02FEF3FEF4DE7E8
S113197053E068E184E00E94B9036894EE24E1F83E
S11319802FEF3FEF4EE26CE28CE10E948B032FEFCE
S11319903FEF4EE26CE280E40E948B0320EE37E0DE
S11319A042E36CE28CE40E948B0320EE37E040E3D8
S11319B06CE288E50E948B032FEF3FEF4AE36CE46F
S11319C088E20E948B032FEF3FEF4AE36CE48CE440
S11319D00E948B03EE24E3942FEF3FEF47E953E09B
S11319E060E784E00E94B9032FEF3FEF42EB53E03E
S11319F060E884E00E94B90320EE3FEF4FEC53E02F
S1131A0060E984E00E94B9031F910F91EF9008955B
S1131A108F929F92AF92BF92CF92DF92EF92FF92FA
S1131A200F931F93CF93DF93982E862ED42F6901A3
S1131A30CDEC4C9FC12D1124C695C695C69540E3A7
S1131A404C0F0E948B03CC0F8C2F880F880FC80F6C
S1131A504D2F4C1B405D9E2D990F9E0D892F880F95
S1131A609601682D890D0E948B03DF91CF911F9100
S1131A700F91FF90EF90DF90CF90BF90AF909F9029
S1131A808F900895EF920F931F93CF93DF93CEEB34
S1131A90D6E06894EE24E1F800E010E020EE37E0B0
S1131AA04C816CE284E0B4DF20EE37E04D816CE2DF
S1131AB088E2AEDF20EE37E04E816CE284E6A8DFF8
S1131AC020EE37E04A816CE480E1A2DF20EE37E0CB
S1131AD049816CE484E39CDF20EE37E048816CE4C8
S1131AE088E596DF8091B406882359F0EE24E394C8
S1131AF020EE37E042E454E060E986E40E94B90352
S1131B000CC0EE24E39400E010E02FEF3FEF46E832
S1131B1056E060E986E40E94B903DF91CF911F91FA
S1131B200F91EF900895EF920F931F939091B50644
S1131B30921305C000EE1FEF20E030E004C000E087
S1131B4010E020EE37E06894EE24E1F861DF1F91A5
S1131B500F91EF900895EF920F931F939091B50614
S1131B60921305C000EE1FEF20E030E004C000E057
S1131B7010E020EE37E06894EE24E1F849DF1F918D
S1131B800F91EF9008950F931F9300E010E028E861
S1131B9040E864E180E00E943C041F910F910895A5
S1131BA0EF920F931F93CF93DF93EDDFEE24E39433
S1131BB000E010E02FEF3FEF49EE53E068E184E0EE
S1131BC00E94B903C7EBD6E020E04C816CE284E0CC
S1131BD0AADF6894EE24E1F82FEF3FEF4EE26CE2C7
S1131BE08CE10E948B0321E04D816CE288E29BDF53
S1131BF02FEF3FEF4EE26CE280E40E948B0320EE75
S1131C0037E042E36CE28CE40E948B0320EE37E081
S1131C1040E36CE288E50E948B0322E04E816CE293
S1131C2084E681DFEE24E3942FEF3FEF45E054E0B8
S1131C3068E584E00E94B9032FEF3FEF4EE154E0E2
S1131C4068E684E00E94B9032FEF3FEF47E354E0D6
S1131C5068E784E00E94B90320EE3FEF4FE454E0CC
S1131C6068E786E40E94B903DF91CF911F910F9139
S1131C70EF900895EF920F931F93CF93DF9383DF39
S1131C80EE24E39400E010E02FEF3FEF45E654E04C
S1131C9068E184E00E94B903C7EBD6E020E04A8102
S1131CA064E380E158DF6894EE24E1F82FEF3FEF1E
S1131CB04AE364E388E20E948B0321E0498164E300
S1131CC084E349DF2FEF3FEF4AE364E38CE40E94AF
S1131CD08B0322E0488164E388E53DDFEE24E3944E
S1131CE02FEF3FEF45E054E068E684E00E94B9033B
S1131CF02FEF3FEF41E854E068E784E00E94B90326
S1131D002FEF3FEF47E354E068E884E00E94B90313
S1131D1020EE3FEF4EE954E068E886E40E94B90300
S1131D20DF91CF911F910F91EF9008958091B606A6
S1131D30811108C028DF12DEA5DE8091BE068093E3
S1131D400D010895813011F42BCF0895823009F4E8
S1131D5091CF0895CF93DF93CDB7DEB727970FB612
S1131D60F894DEBF0FBECDBFCE01019631D980916C
S1131D70B606813049F48B81E7EBF6E082838A81F1
S1131D808183898180830CC0823051F48D81E7EB9B
S1131D90F6E084838E8185838F8186838C8183831F
S1131DA087EB96E087D98EEB96E012D91092B606AF
S1131DB081E08093B406E7DED1DD64DE8091BE0667
S1131DC080930D0127960FB6F894DEBF0FBECDBFEA
S1131DD0DF91CF910895EF920F931F9380E090E0ED
S1131DE00E944A031092C5061092B6061092B406D9
S1131DF01092B306EAD88EEB96E0EAD8EE24E39488
S1131E0000E010E02FEF3FEF4AEB54E064E084E0A1
S1131E100E94B903A3DD36DE8091BE0680930D01D6
S1131E201F910F91EF900895CF93C82F811127C070
S1131E308091B60681116EC02FEF80E792E02150A9
S1131E4080409040E1F700C000008091B3068F5FAE
S1131E508093B306833008F45DC01092B3068EEB12
S1131E6096E0B6D89091BE0680910D01981709F4BA
S1131E7051C008DE8091BE0680930D014BC08533AE
S1131E8059F48091C506853339F482E08093A6061F
S1131E901092C5060AD83EC08091B60681111EC0B4
S1131EA0C43361F487EB96E093D881E08093B6065F
S1131EB01092B5061092B40673DE0DC0C63359F401
S1131EC087EB96E085D882E08093B6061092B5063B
S1131ED01092B406CFDEC093C5061CC08150823078
S1131EE0B8F4C43319F451DC21DF12C0C63319F439
S1131EF030DC1CDF0DC0C83319F4C9DC17DF08C09F
S1131F00C23319F460DC12DF03C0C53309F422DFE5
S1131F10C093C506CF910895DF92EF92FF920F937D
S1131F201F93CF93DF930E942318D82E00E010E074
S1131F3029E140E866E480E00E943C04EE24E39456
S1131F402FEF3FEF4CEC54E06AE484E00E94B903C5
S1131F50D9E2DD9ED12D1124D295DF70CDECDC9E2B
S1131F60812D11248695869586958C9FC12D1124EB
S1131F70C695C695C695CC0F4C2F440F440FC40F7D
S1131F80982F9C1BC92F880F982F990F990F890F91
S1131F90FD2CF81ADD2381F06894EE24E1F820EE9C
S1131FA037E040E34D0F68E488E20E948B030F2E74
S1131FB0F6E3DF2EF02D04C00F2EF8E2DF2EF02D15
S1131FC0D11102C0CC2379F040E34C0F6894EE2485
S1131FD0E1F800E010E020EE37E068E48D2D0E9487
S1131FE08B038EE0D80E40E34F0D6894EE24E1F8A5
S1131FF000E010E020EE37E068E48D2D0E948B03B2
S1132000DF91CF911F910F91FF90EF90DF90089592
S1132010EF920F931F93D2D780E090E00E944A037F
S11320201092C606EE24E39400E010E02FEF3FEF99
S113203045ED54E064E084E00E94B9032FEF3FEFE4
S113204049EE54E06CE184E00E94B9032FEF3FEFC6
S113205042EF54E06CE284E00E94B90320EE3FEFCB
S113206047E653E068E784E00E94B90355DF1F9117
S11320700F91EF900895CF938823D1F0C82F853323
S113208069F48091C606853349F4E0D782E08093F1
S1132090A6061092C6060E9455070AC0C43311F45E
S11320A0B5D73ADFC63311F4BFD736DFC093C606BF
S11320B0CF9108958F929F92AF92BF92CF92DF9269
S11320C0EF920F931F93CF93DF93E091C906F091A2
S11320D0CA069F01369527953695279536952795F7
S11320E0A5ECB0E20E94DF1BEC01D295C295CF7043
S11320F0CD27DF70CD279E01ADECBCEC0E94DF1B29
S11321005C01B694A794B694A794B694A794A50139
S1132110440F551FAA0CBB1CAA0CBB1CAA0CBB1C4D
S1132120A40EB51ECE018A199B095C019F01369548
S1132130279536952795ABE7B4E10E94DF1BEC01A8
S1132140D695C7959E01ADECBCEC0E94DF1B6C01DB
S1132150D694C794D694C794D694C794A601440F32
S1132160551FCC0CDD1CCC0CDD1CCC0CDD1CC40EB2
S1132170D51ECE018C199D096C019F010E94DF1BA5
S11321804C0196948794969487949694879494019A
S11321900E94DF1BEC01D695C795D695C795D695B9
S11321A0C795AE01440F551FCC0FDD1FCC0FDD1FAB
S11321B0CC0FDD1FC40FD51FC4018C1B9D0BEC017C
S11321C0C401880F991F880C991C880C991C880CD1
S11321D0991C880E991ECF01881999094C0100E0B9
S11321E010E02CE140E860E780E00E943C04EE242B
S11321F0E3942FEF3FEF4DEF54E066E784E00E9455
S1132200B90340E34A0D6894EE24E1F820EE37E088
S113221062E784E30E948B0340E34C0D20EE37E039
S113222062E782E40E948B034C2F405D20EE37E08E
S113223062E780E50E948B0340E3480D20EE37E01F
S113224062E78EE50E948B03DF91CF911F910F917E
S1132250EF90DF90CF90BF90AF909F908F900895B4
S11322608091C806882309F18FE097E20197F1F77E
S113227000C000008091C7068F5F8093C706843139
S1132280A0F01092C7068091C9069091CA068F30BB
S113229027E2920740F401969093CA068093C906F8
S11322A068D708CF08951092C8060895EF920F9347
S11322B01F9380E090E00E944A030E946F191092DD
S11322C0CB061092CA061092C9061092C806109244
S11322D0C70638D78091C9069091CA064AD7EE241A
S11322E0E39400E010E02FEF3FEF48E055E064E0B6
S11322F084E00E94B9032FEF3FEF4CE155E06CE11D
S113230084E00E94B9032FEF3FEF42E355E06CE213
S113231084E00E94B9032FEF3FEF46E455E06CE3FD
S113232084E00E94B9032FEF3FEF48E555E06CE4E9
S113233084E00E94B90320EE3FEF4FEC53E060E9E4
S113234084E00E94B903B6DE1F910F91EF900895C7
S1132350CF93C82F85DFCC2309F46BC0C53379F440
S11323608091CB06853359F41092C806EFD686E0E7
S11323708093A6061092CB060E94D9065AC0C53394
S113238041F481E08093C8061092C706C093CB063F
S113239050C0C233C1F41092C8068091C90690910E
S11323A0CA0601969093CA068093C9068031974263
S11323B020F01092CA061092C9068091C906909125
S11323C0CA06D7D677DEC833D1F41092C8068091F6
S11323D0C9069091CA06009739F48FE097E290936A
S11323E0CA068093C90605C001979093CA068093D4
S11323F0C9068091C9069091CA06BBD65BDEC43378
S113240051F41092C80688EB92E29093CA06809326
S1132410C906AFD64FDEC63351F41092C80682ED1A
S113242094E09093CA068093C906A3D643DEC09372
S1132430CB06CF910895EF920F931F93CF93DF9321
S1132440EC0100E010E022E140E86EE580E00E944B
S11324503C04EE24E39420EE37E0AE0162E684E02F
S11324600E94B903DF91CF911F910F91EF900895CE
S11324701092CF061092CE061092CD061092CC0682
S1132480A7D78EEA95E0D7CF089581E08093CF0651
S11324901092CE061092CD061092CC068DE298E0F2
S11324A0ACD78CE695E0C7CF08958091CF068823FA
S11324B0C9F18FE097E20197F1F700C00000809125
S11324C0CC069091CD0605969093CD068093CC06CC
S11324D0E091CE06AE2FB0E0AA0FBB1FAA0FBB1F20
S11324E0AD51BA4F12962D913C91139782179307D1
S11324F0C8F0EF5FE093CE061092CD061092CC06A2
S1132500E93010F0B5CF0895F0E0EE0FFF1FEE0FA5
S1132510FF1FED51FA4F80819181009711F458C744
S113252008956BC70895EF920F931F9380E090E096
S11325300E944A031092D00658D74AD71092CF0669
S11325401092CE061092CD061092CC06EE24E3949F
S113255000E010E02FEF3FEF49E755E064E084E04E
S11325600E94B9032FEF3FEF41E955E06CE184E0AD
S11325700E94B9032FEF3FEF45EA55E06CE284E097
S11325800E94B9032FEF3FEF47EB55E06CE384E083
S11325900E94B9032FEF3FEF4FEC55E06CE484E069
S11325A00E94B90320EE3FEF4FEC53E060E984E072
S11325B00E94B9038EEA95E03EDF1F910F91EF90E0
S11325C00895CF93C82F71DFCC2309F436C0C533E7
S11325D069F48091D006853349F44ADF86E080931C
S11325E0A6061092D0060E94D90627C0C53321F44E
S11325F04CDFC093D00621C0C43309F439DFC233A1
S113260061F436DF80EC95E016DF68E770E08CEA71
S11326109DE050D78EEA95E00EDFC83361F428DFE1
S113262086ED95E008DF68E770E080E293E042D74A
S11326308EEA95E000DFC093D006CF9108956F92A3
S11326407F928F929F92AF92BF92CF92DF92EF923E
S1132650FF920F931F93CF93DF93782E662E942EC1
S1132660F52E590168018E2C40E0C0E1D7E22AC062
S1132670892D9F2DBE010E948D1B982EF92E61116C
S113268005C0411103C0C130D10581F440E3460FB8
S1132690E82C86019501662D872D0E948B03882DD9
S11326A0880F880D982F990F790E41E09E01ADECAB
S11326B0BCEC0E94DF1BEC01D695C795D695C79557
S11326C0D695C7952097A1F6DF91CF911F910F91D1
S11326D0FF90EF90DF90CF90BF90AF909F908F903E
S11326E07F906F900895EF920F931F9300E010E096
S11326F02EE340E86EE580E00E943C04EE24E3947F
S11327002FEF3FEF47E056E062E684E00E94B90312
S113271040910E0150910F0120EE37E060E784E014
S11327208EDF2FEF3FEF48E156E060E78CE20E9436
S1132730B9031F910F91EF900895EF920F931F9398
S11327404FD780E090E00E944A031092D306EE2413
S1132750E39400E010E02FEF3FEF4FE156E064E038
S113276084E00E94B9032FEF3FEF49EE54E068E1A3
S113277084E00E94B9032FEF3FEF42EF54E068E298
S113278084E00E94B9032FEF3FEF45E356E068E38E
S113279084E00E94B9032FEF3FEF4DE456E068E474
S11327A084E00E94B9039FDF20EE3FEF4FEC53E03B
S11327B062E984E00E94B9031F910F91EF9008959C
S11327C0CF93882309F468C0C82F853369F48091B6
S11327D0D306853349F482E08093A6061092D3068B
S11327E0F9D60E94550758C0C43389F460910E018C
S11327F070910F0180E091E045D78091D1069091CE
S1132800D2069A959093D2068093D1066CDFC63394
S113281089F460910E0170910F0180E091E01AD764
S11328208091D1069091D20693959093D20680938D
S1132830D10659DFC233B1F480910E0190910F019A
S11328408D3B22E0920738F08456910990930F0152
S113285080930E0106C088E592E090930F01809367
S11328600E0141DFC833B1F480910E0190910F0144
S113287084352BE0920738F48C599F4F90930F01C5
S113288080930E0106C088EB9BE090930F01809328
S11328900E0129DFC093D306CF9108959C0180E0F7
S11328A001C08F5FF901E80FF11D90819111F9CFFB
S11328B00895CF92DF92EF92FF920F931F93CF93DD
S11328C0DF93FB01811520E8920739F485E48083C6
S11328D082E5818382831382F1C099234CF42DE233
S11328E0208344275527481B590BDD24D39402C069
S11328F0AC01D12C9A01ADECBCEC61D7EC01D695BE
S1132900C795D695C795D695C7959E01220F331FB7
S1132910CE01880F991F880F991F880F991F820F66
S1132920931F142F181BC436D10508F468C001E0A6
S11329300D0D7F01ED0CF11C9A0136952795369506
S1132940279536952795A5ECB0E239D792958295CF
S11329508F7089279F708927805DD7018C93689435
S1132960CC24C1F8CD0C7F01E00EF11C9A01369500
S1132970279536952795ABE7B4E121D7AC01569559
S113298047959A01ADECBCEC1AD796958795969528
S11329908795969587959C01220F331F880F991F61
S11329A0880F991F880F991F820F931F9A01281B64
S11329B0390BC901805DD7018C9303E00D0DAF0184
S11329C04C0D511D9E01ADECBCECF9D69695879546
S11329D096958795969587959C01220F331F880FAE
S11329E0991F880F991F880F991F820F931F9E01AB
S11329F0281B390BC901805DDA018C9340C0CA30B1
S1132A00D105A8F1CC24C394CD0C7F01ED0CF11CAD
S1132A109A013695279536952795ABE7B4E1CFD63D
S1132A2096958795805DD7018C9302E00D0DAF01DB
S1132A304C0D511D9E01ADECBCECC1D6969587950D
S1132A4096958795969587959C01220F331F880F3D
S1132A50991F880F991F880F991F820F931F9E013A
S1132A60281B390BC901805DDA018C9308C001E091
S1132A700D0DDF01AD0DB11D8C2F805D8C9391E0A8
S1132A80900FDF01A00FB11D8EE28C9382E0800FC6
S1132A90DF01A90FB11D105D1C9393E0900FDF01BE
S1132AA0A80FB11D80E28C9384E0800FDF01A90F91
S1132AB0B11D93E49C93E80FF11D1082DF91CF9137
S1132AC01F910F91FF90EF90DF90CF9008958115A3
S1132AD020E8920741F0883C91053CF08E35914006
S1132AE034F481E0089582E0089580E0089582E05E
S1132AF00895882329F0813031F480EE97E0089519
S1132B008FE190E0089580E098EF0895CF92DF92EE
S1132B10EF92FF920F931F93CF93DF93FB018115E5
S1132B2020E8920751F48EE9808388EA818388E95A
S1132B30828381E983831482E3C099234CF42DE2D8
S1132B40208344275527481B590BDD24D39402C006
S1132B50AC01D12C9A01ADECBCEC31D6EC01D6958C
S1132B60C795D695C795D695C7959E01220F331F55
S1132B70CE01880F991F880F991F880F991F820F04
S1132B80931F142F181BC436D10508F468C001E044
S1132B900D0D7F01ED0CF11C9A01369527953695A4
S1132BA0279536952795A5ECB0E209D6929582959E
S1132BB08F7089279F708927805DD7018C936894D3
S1132BC0CC24C1F8CD0C7F01E00EF11C9A0136959E
S1132BD0279536952795ABE7B4E1F1D5AC01569529
S1132BE047959A01ADECBCECEAD5969587959695F8
S1132BF08795969587959C01220F331F880F991FFF
S1132C00880F991F880F991F820F931F9A01281B01
S1132C10390BC901805DD7018C9303E00D0DAF0121
S1132C204C0D511D9E01ADECBCECC9D59695879514
S1132C3096958795969587959C01220F331F880F4B
S1132C40991F880F991F880F991F820F931F9E0148
S1132C50281B390BC901805DDA018C9340C0CA304E
S1132C60D105A8F1CC24C394CD0C7F01ED0CF11C4B
S1132C709A013695279536952795ABE7B4E19FD50C
S1132C8096958795805DD7018C9302E00D0DAF0179
S1132C904C0D511D9E01ADECBCEC91D596958795DC
S1132CA096958795969587959C01220F331F880FDB
S1132CB0991F880F991F880F991F820F931F9E01D8
S1132CC0281B390BC901805DDA018C9308C001E02F
S1132CD00D0DDF01AD0DB11D8C2F805D8C9391E046
S1132CE0900FDF01A00FB11D8EE28C9382E0800F64
S1132CF0DF01A90FB11D105D1C93E80FF11D1082B7
S1132D00DF91CF911F910F91FF90EF90DF90CF90C3
S1132D100895CF92DF92EF920F931F93CF93DF9397
S1132D20CDB7DEB72C970FB6F894DEBF0FBECDBF7C
S1132D306C01BE016F5F7F4FE9DEC601C8DE182F4C
S1132D40D8DE6C0180911201181701F1C6010E94AE
S1132D504A0310931201EE24E39486012FEF3FEF10
S1132D6047E656E064E084E00E94B9032FEF3FEFAA
S1132D7043E756E064E184E00E94B9032FEF3FEF9C
S1132D804FEC53E068E884E00E94B90386012AE22C
S1132D9040E860E480E00E943C04CE0101967EDDC0
S1132DA0482F50E09A01220F331F240F351F220FA2
S1132DB0331F220F331F203831057CF464EF640382
S1132DC09001659F300D112420583F4FC90199236C
S1132DD00CF401969595879501C080E06894EE24E3
S1132DE0E1F886012FEF3FEFAE014F5F5F4F6CE4D8
S1132DF00E94B9032C960FB6F894DEBF0FBECDBF68
S1132E00DF91CF911F910F91EF90DF90CF900895B4
S1132E100F931F93CF93DF93D82F8B01CB013EDD0C
S1132E20803160F420E130E0281B3109C901992385
S1132E300CF4019695958795C82F01C0C0E06D2FBD
S1132E4080E00E94D1018BE796E00E94D6016D2FAD
S1132E508C2F0E94D101C8010E94D601DF91CF912D
S1132E601F910F910895CF93DF93CDB7DEB72C97C1
S1132E700FB6F894DEBF0FBECDBFBE016F5F7F4FAC
S1132E8018DD6CE876E080E0C3DFBE016F5F7F4F42
S1132E9081E0BEDF2C960FB6F894DEBF0FBECDBF27
S1132EA0DF91CF910895CF93DF930E945706EC01F1
S1132EB08091100190911101C817D90721F48091D4
S1132EC012018F3F41F4CE0124DFCE01CCDFD09339
S1132ED01101C0931001DF91CF91089580E090E03B
S1132EE00E944A031092D5061092D4068FEF809365
S1132EF0120180E090E890931101809310010E94E8
S1132F009C010E943D06CFCF0895811114C02FEF7C
S1132F1080E792E0215080409040E1F700C000003B
S1132F208091D4068F5F8093D4068530B0F01092E0
S1132F30D406B9CF0895853371F49091D5069533AD
S1132F4051F40E94E80182E08093A6061092D5060F
S1132F500C94550708958093D50608959C0120325A
S1132F6083E0380710F420E233E0213689E03807A3
S1132F7010F020E639E08FB7F89491E005C0309363
S1132F8014012093130190E09111F9CF8FBF08959C
S1132F90853B08F084EB80931501A4EBB0E0A81BFB
S1132FA0B10920E436E01AD424EB30E040E050E0EC
S1132FB0C8D3C901805E9C4FD1CF08958AB180687F
S1132FC08AB98BB18F778BB910928000E1E8F0E079
S1132FD01082AFE6B0E01C9210928500109284003B
S1132FE084E690E0909389008093880080818860D3
S1132FF0808380818260808382E086BB8C91826042
S11330008C931092D6068AE5C3CF0895809115015A
S1133010853020F085508093150102C0109215016F
S113302080911501B5CF089580911501803B20F45E
S11330308B5F8093150103C084EB8093150180910D
S11330401501A6CF0895809115010895EFE6F0E0EB
S113305080818D7F808310928000109281008BB1DB
S11330608F778BB91092D60608951F920F920FB6E0
S11330700F9211242F933F938F939F938091D606A1
S1133080811110C08BB180688BB98091130190912C
S113309014010197909389008093880081E08093C4
S11330A0D60611C08BB18F778BB920911301309163
S11330B014018FE19EE4821B930B9093890080930B
S11330C088001092D6069F918F913F912F910F9077
S11330D00FBE0F901F90189585B18F6085B9089524
S11330E0811103C095B19E7F95B9813019F495B1D2
S11330F09D7F95B9823019F495B19B7F95B9833042
S113310019F485B1877F85B908958A3038F4E82F9A
S1133110F0E0E556F94F808182B908958FEF82B9C6
S1133120089514BC15BC16BC8CE787BD84B58260B9
S113313084BD85B5836085BDEEE6F0E08081826064
S11331408083089581E08093D70608951092D7066E
S1133150EEE6F0E080818D7F808314BC15BC82E0B4
S113316085BBBADF8FEF82B984B1807F84B911B88F
S11331700895CF93DF93FC019C01329522952F7023
S113318023273F702327A7E4B3E019D3AC01569556
S11331904795569547955695479520E137E2429FC6
S11331A0C001439F900D529F900D1124AF01481B05
S11331B0590BEFB7F89481E08CC09A01ADECBCECEC
S11331C0FED29695879596958795969587959C01B9
S11331D0220F331F880F991F880F991F880F991F7B
S11331E0820F931F9A01281B390B2093DC069A0146
S11331F0E6D2EC01D695C795D695C795D695C795D1
S11332009E01DDD296958795969587959695879597
S11332109C01220F331F880F991F880F991F880F55
S1133220991F820F931F9E01281B390B2093DB06E5
S11332309A013695279536952795ABE7B4E1BFD229
S1133240EC01D695C7959E01ADECBCECB8D2969531
S1133250879596958795969587959C01220F331FA0
S1133260880F991F880F991F880F991F820F931F2A
S11332709E01281B390B2093DA069A01369527956F
S11332803695279536952795A5ECB0E298D2EC01B2
S1133290D295C295CF70CD27DF70CD279E01ADECBE
S11332A0BCEC8DD29695879596958795969587953E
S11332B09C01220F331F880F991F880F991F880FB5
S11332C0991F820F931F9E01281B390B2093D90647
S11332D080E0811172CFEFBFDF91CF9108958FEF1E
S11332E081B982B984B18F6084B9F6DE80E090E060
S11332F040DF1092D70615CF08951F920F920FB694
S11333000F9211240BB60F922F933F934F935F9319
S11333106F937F938F939F93AF93BF93EF93FF9399
S11333208091D706811104C0D7DE8FEF82B92FC0F8
S1133330D3DE8091D806811109C08091DC06E5DED8
S113334080E0CEDE81E08093D80621C08091D8064B
S1133350813049F48091DB06D8DE81E0C1DE82E071
S11333608093D80614C08091D806823049F48091A5
S1133370DA06CBDE82E0B4DE83E08093D80607C0B1
S11333808091D906C2DE83E0ABDE1092D806FF91AD
S1133390EF91BF91AF919F918F917F916F915F91C9
S11333A04F913F912F910F900BBE0F900FBE0F9036
S11333B01F9018951F920F920FB60F9211248F939E
S11333C080E889B98F910F900FBE0F901F901895C8
S11333D0E0E7F0E080818D7F80831092B10010924D
S11333E0B0008BB18F778BB908958AB180688AB9A0
S11333F08BB18F778BB9ECCF0895CF92DF92EF9298
S1133400FF92009711F4E4DF50C0A0E0B0E0880F11
S1133410991FAA1FBB1F880F991FAA1FBB1F880FC4
S1133420991FAA1FBB1F880F991FAA1FBB1F880FB4
S1133430991FAA1FBB1F880F991FAA1FBB1F9C019E
S1133440AD01220F331F441F551F60E072E18AE76C
S113345090E077D1211531054105510521F421E092
S113346030E040E050E069017A0181E0C81AD108F7
S1133470E108F1088FEFC816D104E104F10429F042
S113348020F0C12CD12C7601CA94A2DFC092B300E3
S11334901092B20082E08093B00084E08093B10087
S11334A0E0E7F0E0808182608083FF90EF90DF901E
S11334B0CF900895CF93DF93EB019FDF07C08FEC8C
S11334C097E00197F1F700C0000021972097B9F722
S11334D07FDFDF91CF910895442361F0FC014081A7
S11334E021E030E002C0220F331F6A95E2F7242B5B
S11334F020830895FC01408121E030E002C0220FC6
S1133500331F6A95E2F720952423208308951F939F
S1133510CF93DF93162FD42FC22F482F60E085E27C
S113352090E0DADF412F61E085E290E0D5DF4D2FB6
S113353062E085E290E0D0DF4C2F63E085E290E02A
S1133540CBDFDF91CF911F910895CF93C82F8111C5
S113355005C020E040E060E081E0D9DFC13029F41B
S113356021E040E060E081E0D2DFC23029F421E0D4
S113357040E060E080E0CBDFC33029F421E041E0AB
S113358060E080E0C4DFC43029F420E041E060E082
S113359080E0BDDFC53029F420E041E061E080E057
S11335A0B6DFC63029F420E040E061E080E0AFDF20
S11335B0C73029F420E040E061E081E0A8DFCF914A
S11335C0089505C022E02A95F1F700C001970097FD
S11335D0C9F7089520E040E060E080E098CF0895C6
S11335E084B1816084B984B1826084B984B1846017
S11335F084B984B1886084B9EDDF1092DD06089542
S1133600CF93DF93EC018091DD069FDFCE01D9DFFC
S11336108091DD068F5F8093DD06883010F0109274
S1133620DD06DF91CF910895CF93DF93EC01809174
S1133630DD06811104C087E08093DD0603C081505C
S11336408093DD068091DD0680DFCE01BADFDF9155
S1133650CF910895EF92FF920F931F93CF93DF932F
S11336608C017B01C0E0D0E003C0C701C9DF219613
S1133670C017D107D0F3DF91CF911F910F91FF9025
S1133680EF900895EF92FF920F931F93CF93DF93E0
S11336908C017B01C0E0D0E003C0C701C5DF2196E7
S11336A0C017D107D0F3DF91CF911F910F91FF90F5
S11336B0EF9008951092B90080E28093B80084E0FE
S11336C08093BC00089584EA8093BC008091BC0080
S11336D08823E4F7089584E98093BC0008958093D7
S11336E0BB0084E88093BC008091BC008823E4F78D
S11336F0089584EC8093BC008091BC008823E4F797
S11337008091BB00089584E88093BC008091BC0044
S11337108823E4F78091BB000895AA1BBB1B51E1E9
S113372007C0AA1FBB1FA617B70710F0A61BB70B2D
S1133730881F991F5A95A9F780959095BC01CD01D2
S11337400895A1E21A2EAA1BBB1BFD010DC0AA1FDE
S1133750BB1FEE1FFF1FA217B307E407F50720F0F6
S1133760A21BB30BE40BF50B661F771F881F991F71
S11337701A9469F760957095809590959B01AC01BA
S1133780BD01CF010895052E97FB16F400940FD0C8
S113379057FD05D0D6DF07FC02D046F408C050958B
S11337A04095309521953F4F4F4F5F4F0895909529
S11337B08095709561957F4F8F4F9F4F0895A29F7D
S11337C0B001B39FC001A39F700D811D1124911DF1
S11337D0B29F700D811D1124911D0895F0DFB7FF74
S11337E00895821B930B0895EADFA59F900DB49F63
S11337F0900DA49F800D911D11240895F894FFCF7E
S11338003132333435363738392A30231EFF20031A
S11338100080FFDC055AD0A2D095D0A1D0A22037D9
S113382020D0A1D095D093D09C00000000000000CF
S11338300000000000000000000000000000D0A212
S1133840D095D0A1D0A220D094D098D09ED094D09E
S11338509ED0920000000000000000000000000064
S1133860000000000000D0A2D095D0A1D0A220D0AA
S1133870A1D09FD098D09AD095D0A0D0900000002D
S11338800000000000000000000000000000D0A2C2
S1133890D095D0A1D0A220D09AD09BD090D092D055
S11338A098D090D0A2D0A3D0A0D0AB00000000004C
S11338B0000000000000D0A2D095D0A1D0A220D05A
S11338C0A1D095D0A0D092D09ED09FD0A0D098D097
S11338D092D09ED094D09000000000000000D0A2AE
S11338E0D095D0A1D0A220D0A8D090D0932E20D013
S11338F09CD09ED0A2D09ED0A0D09000000000000A
S1133900000000000000D0A2D095D09CD09FD0959C
S1133910D0A0D090D0A2D0A3D0A0D090000000001E
S11339200000000000000000000000000000D0A71C
S1133930D090D0A1D0AB20D0A0D095D090D09BD0A7
S1133940ACD09DD09ED093D09E20D092D0A02E00FB
S1133950000000000000D09FD09BD090D0A2D09057
S113396020D09DD09ED09CD095D0A0203100D09F57
S1133970D09BD090D0A2D09020D09DD09ED09CD06F
S113398095D0A0203200D092D0ABD091D09ED0A0C0
S113399020D09FD09BD090D0A2D0AB00D0A6D09501
S11339A0D09DD0A2D0A020D092D0ABD091D09ED028
S11339B0A000D093D09BD090D092D09DD0ABD09982
S11339C000D0ADD09AD0A0D090D09D00D0A6D095F4
S11339D0D09DD0A2D0A020D09CD095D09DD0AE00B8
S11339E0D0A2D095D0A1D0A220D09AD09BD090D0F4
S11339F092D098D090D0A2D0A3D0A0D0AB00D0A227
S1133A00D095D0A1D0A220D094D098D09ED094D0DC
S1133A109ED09200D0A1D0A7D095D0A220D09ED085
S1133A20A2203020D094D09E2032353500D09BD0B7
S1133A3095D092D09E20D09FD090D0A3D097D090F4
S1133A4000D09FD0A0D090D092D09E20D0A1D09171
S1133A50D0A0D09ED0A100D094D092D09020D0A05D
S1133A60D090D097D09020D0A6D095D09DD0A2D081
S1133A70A020D092D0ABD0A5D09ED09400D0A2D01C
S1133A8095D09AD0A3D0A9D095D09520D092D0A08B
S1133A90D095D09CD0AF00D09BD095D09220D09D13
S1133AA0D090D0A1D0A2D0A020D094D090D0A2D039
S1133AB0AB00D09FD0A0D090D09220D09DD090D0F9
S1133AC0A1D0A2D0A020D092D0A0D095D09C00327A
S1133AD0D0A020D0A6D095D09DD0A2D0A020D092A6
S1133AE0D0ABD0A5D09ED09400D09DD090D0A1D002
S1133AF0A2D0A0D09ED099D09AD09020D094D0902B
S1133B00D0A2D0AB00D092D095D0A0D0A52FD09D7C
S1133B10D098D09720D09FD09ED09BD09500D09B9A
S1133B20D095D0922FD09FD0A0D090D09220D09773
S1133B30D09DD090D0A700D0A6D095D09DD0A2D0B3
S1133B40A020D097D090D09FD098D0A1D0AC0032F4
S1133B50D0A020D0A6D095D09DD0A2D0A020D09225
S1133B60D0ABD0A500D09DD090D0A1D0A2D0A0D071
S1133B709ED099D09AD09020D092D0A0D095D09CAD
S1133B8000D09BD095D092D09E2FD09FD0A0D09023
S1133B90D092D09E20D097D09DD090D0A70032D084
S1133BA0A0D090D097D09020D0A6D095D09DD0A270
S1133BB0D0A020D092D0ABD0A500D0A2D095D0A1D7
S1133BC0D0A220D094D0A13133303700D0A3D093E9
S1133BD0D09ED09B00D0A2D095D0A1D0A220D0A1BD
S1133BE0D095D0A0D092D09E00D09BD095D092D02A
S1133BF09E00D09FD0A0D090D092D09E00D0A7D0CD
S1133C0098D0A1D09BD09E00D0A2D095D0A1D0A214
S1133C10203720D0A1D095D093D09C00D092D095BD
S1133C20D0A0D0A520D091D09ED09BD0ACD0A8D08D
S1133C309500D09DD098D09720D09CD095D09DD081
S1133C40ACD0A8D09500D09BD095D092D09E20D057
S1133C5092D0A1D095203800D0A6D095D09DD0A2E6
S1133C60D0A020D0A1D0A7D095D0A200D098D09336
S1133C70D0A0D090D095D0A200D0A2D095D0A1D081
S1133C80A220D0A1D09FD098D09AD095D0A0D09087
S1133C9000D0A6D095D09DD0A2D0A020D09FD0A3F4
S1133CA0D0A1D09A00D09BD095D092D09E20D0A104
S1133CB0D0A2D09ED09F00D092D095D0A0D0A520E5
S1133CC0D092D0ABD0A1D09ED09AD098D09900D029
S1133CD09DD098D09720D09DD098D097D09AD09846
S1133CE0D099002D0878004D0A7800400C78005ACD
S1133CF010DC00400C78005A102C01000050004DDC
S1133D000A7800400CFA00D097D090D094D095D087
S1133D10A0D096D09AD09000D09CD09AD0A100D0B8
S1133D20A2D095D0A1D0A220D09CD09ED0A2D09ECB
S1133D30D0A0D09000D092D095D0A0D0A520D09182
S1133D40D0ABD0A1D0A2D0A0D095D09500D09DD09A
S1133D5098D09720D09CD095D094D09BD095D09DCE
S1133D60D09DD095D09500D09CD090D0A53331383B
S1133D70363500D0A0D0A2313030002020202020C1
S1133D802020202020202020202020004D415833B6
S1133D903138363520505431303000C0F9A4B09950
S1093DA09282F8809000FD
S9030000FC
